{
    "contractName": "NFT",
    "abi": [
        {
            "inputs": [
                {
                    "internalType": "string",
                    "name": "_name",
                    "type": "string"
                },
                {
                    "internalType": "string",
                    "name": "_symbol",
                    "type": "string"
                }
            ],
            "stateMutability": "nonpayable",
            "type": "constructor"
        },
        {
            "anonymous": false,
            "inputs": [
                {
                    "indexed": true,
                    "internalType": "address",
                    "name": "owner",
                    "type": "address"
                },
                {
                    "indexed": true,
                    "internalType": "address",
                    "name": "approved",
                    "type": "address"
                },
                {
                    "indexed": true,
                    "internalType": "uint256",
                    "name": "tokenId",
                    "type": "uint256"
                }
            ],
            "name": "Approval",
            "type": "event"
        },
        {
            "anonymous": false,
            "inputs": [
                {
                    "indexed": true,
                    "internalType": "address",
                    "name": "owner",
                    "type": "address"
                },
                {
                    "indexed": true,
                    "internalType": "address",
                    "name": "operator",
                    "type": "address"
                },
                {
                    "indexed": false,
                    "internalType": "bool",
                    "name": "approved",
                    "type": "bool"
                }
            ],
            "name": "ApprovalForAll",
            "type": "event"
        },
        {
            "anonymous": false,
            "inputs": [
                {
                    "indexed": true,
                    "internalType": "address",
                    "name": "previousOwner",
                    "type": "address"
                },
                {
                    "indexed": true,
                    "internalType": "address",
                    "name": "newOwner",
                    "type": "address"
                }
            ],
            "name": "OwnershipTransferred",
            "type": "event"
        },
        {
            "anonymous": false,
            "inputs": [
                {
                    "indexed": true,
                    "internalType": "address",
                    "name": "from",
                    "type": "address"
                },
                {
                    "indexed": true,
                    "internalType": "address",
                    "name": "to",
                    "type": "address"
                },
                {
                    "indexed": true,
                    "internalType": "uint256",
                    "name": "tokenId",
                    "type": "uint256"
                }
            ],
            "name": "Transfer",
            "type": "event"
        },
        {
            "inputs": [
                {
                    "internalType": "address",
                    "name": "to",
                    "type": "address"
                },
                {
                    "internalType": "uint256",
                    "name": "tokenId",
                    "type": "uint256"
                }
            ],
            "name": "approve",
            "outputs": [],
            "stateMutability": "nonpayable",
            "type": "function"
        },
        {
            "inputs": [
                {
                    "internalType": "address",
                    "name": "owner",
                    "type": "address"
                }
            ],
            "name": "balanceOf",
            "outputs": [
                {
                    "internalType": "uint256",
                    "name": "",
                    "type": "uint256"
                }
            ],
            "stateMutability": "view",
            "type": "function"
        },
        {
            "inputs": [
                {
                    "internalType": "uint256",
                    "name": "_tokenID",
                    "type": "uint256"
                },
                {
                    "internalType": "string",
                    "name": "_newURI",
                    "type": "string"
                }
            ],
            "name": "changeTokenURI",
            "outputs": [],
            "stateMutability": "nonpayable",
            "type": "function"
        },
        {
            "inputs": [],
            "name": "cost",
            "outputs": [
                {
                    "internalType": "uint256",
                    "name": "",
                    "type": "uint256"
                }
            ],
            "stateMutability": "view",
            "type": "function"
        },
        {
            "inputs": [
                {
                    "internalType": "uint256",
                    "name": "tokenId",
                    "type": "uint256"
                }
            ],
            "name": "getApproved",
            "outputs": [
                {
                    "internalType": "address",
                    "name": "",
                    "type": "address"
                }
            ],
            "stateMutability": "view",
            "type": "function"
        },
        {
            "inputs": [],
            "name": "getContractEthBalance",
            "outputs": [
                {
                    "internalType": "uint256",
                    "name": "",
                    "type": "uint256"
                }
            ],
            "stateMutability": "view",
            "type": "function"
        },
        {
            "inputs": [
                {
                    "internalType": "address",
                    "name": "owner",
                    "type": "address"
                },
                {
                    "internalType": "address",
                    "name": "operator",
                    "type": "address"
                }
            ],
            "name": "isApprovedForAll",
            "outputs": [
                {
                    "internalType": "bool",
                    "name": "",
                    "type": "bool"
                }
            ],
            "stateMutability": "view",
            "type": "function"
        },
        {
            "inputs": [],
            "name": "maxMintAmount",
            "outputs": [
                {
                    "internalType": "uint256",
                    "name": "",
                    "type": "uint256"
                }
            ],
            "stateMutability": "view",
            "type": "function"
        },
        {
            "inputs": [
                {
                    "internalType": "address",
                    "name": "_to",
                    "type": "address"
                },
                {
                    "internalType": "uint256",
                    "name": "_mintAmount",
                    "type": "uint256"
                },
                {
                    "internalType": "string",
                    "name": "_metaDataURI",
                    "type": "string"
                }
            ],
            "name": "mint",
            "outputs": [],
            "stateMutability": "payable",
            "type": "function"
        },
        {
            "inputs": [],
            "name": "name",
            "outputs": [
                {
                    "internalType": "string",
                    "name": "",
                    "type": "string"
                }
            ],
            "stateMutability": "view",
            "type": "function"
        },
        {
            "inputs": [],
            "name": "owner",
            "outputs": [
                {
                    "internalType": "address",
                    "name": "",
                    "type": "address"
                }
            ],
            "stateMutability": "view",
            "type": "function"
        },
        {
            "inputs": [
                {
                    "internalType": "uint256",
                    "name": "tokenId",
                    "type": "uint256"
                }
            ],
            "name": "ownerOf",
            "outputs": [
                {
                    "internalType": "address",
                    "name": "",
                    "type": "address"
                }
            ],
            "stateMutability": "view",
            "type": "function"
        },
        {
            "inputs": [
                {
                    "internalType": "bool",
                    "name": "_state",
                    "type": "bool"
                }
            ],
            "name": "pause",
            "outputs": [],
            "stateMutability": "nonpayable",
            "type": "function"
        },
        {
            "inputs": [],
            "name": "paused",
            "outputs": [
                {
                    "internalType": "bool",
                    "name": "",
                    "type": "bool"
                }
            ],
            "stateMutability": "view",
            "type": "function"
        },
        {
            "inputs": [
                {
                    "internalType": "address",
                    "name": "_user",
                    "type": "address"
                }
            ],
            "name": "removeWhitelistUser",
            "outputs": [],
            "stateMutability": "nonpayable",
            "type": "function"
        },
        {
            "inputs": [],
            "name": "renounceOwnership",
            "outputs": [],
            "stateMutability": "nonpayable",
            "type": "function"
        },
        {
            "inputs": [
                {
                    "internalType": "address",
                    "name": "from",
                    "type": "address"
                },
                {
                    "internalType": "address",
                    "name": "to",
                    "type": "address"
                },
                {
                    "internalType": "uint256",
                    "name": "tokenId",
                    "type": "uint256"
                }
            ],
            "name": "safeTransferFrom",
            "outputs": [],
            "stateMutability": "nonpayable",
            "type": "function"
        },
        {
            "inputs": [
                {
                    "internalType": "address",
                    "name": "from",
                    "type": "address"
                },
                {
                    "internalType": "address",
                    "name": "to",
                    "type": "address"
                },
                {
                    "internalType": "uint256",
                    "name": "tokenId",
                    "type": "uint256"
                },
                {
                    "internalType": "bytes",
                    "name": "_data",
                    "type": "bytes"
                }
            ],
            "name": "safeTransferFrom",
            "outputs": [],
            "stateMutability": "nonpayable",
            "type": "function"
        },
        {
            "inputs": [
                {
                    "internalType": "address",
                    "name": "operator",
                    "type": "address"
                },
                {
                    "internalType": "bool",
                    "name": "approved",
                    "type": "bool"
                }
            ],
            "name": "setApprovalForAll",
            "outputs": [],
            "stateMutability": "nonpayable",
            "type": "function"
        },
        {
            "inputs": [
                {
                    "internalType": "uint256",
                    "name": "_newCost",
                    "type": "uint256"
                }
            ],
            "name": "setCost",
            "outputs": [],
            "stateMutability": "nonpayable",
            "type": "function"
        },
        {
            "inputs": [
                {
                    "internalType": "uint256",
                    "name": "_newmaxMintAmount",
                    "type": "uint256"
                }
            ],
            "name": "setmaxMintAmount",
            "outputs": [],
            "stateMutability": "nonpayable",
            "type": "function"
        },
        {
            "inputs": [
                {
                    "internalType": "bytes4",
                    "name": "interfaceId",
                    "type": "bytes4"
                }
            ],
            "name": "supportsInterface",
            "outputs": [
                {
                    "internalType": "bool",
                    "name": "",
                    "type": "bool"
                }
            ],
            "stateMutability": "view",
            "type": "function"
        },
        {
            "inputs": [],
            "name": "symbol",
            "outputs": [
                {
                    "internalType": "string",
                    "name": "",
                    "type": "string"
                }
            ],
            "stateMutability": "view",
            "type": "function"
        },
        {
            "inputs": [
                {
                    "internalType": "uint256",
                    "name": "index",
                    "type": "uint256"
                }
            ],
            "name": "tokenByIndex",
            "outputs": [
                {
                    "internalType": "uint256",
                    "name": "",
                    "type": "uint256"
                }
            ],
            "stateMutability": "view",
            "type": "function"
        },
        {
            "inputs": [
                {
                    "internalType": "address",
                    "name": "owner",
                    "type": "address"
                },
                {
                    "internalType": "uint256",
                    "name": "index",
                    "type": "uint256"
                }
            ],
            "name": "tokenOfOwnerByIndex",
            "outputs": [
                {
                    "internalType": "uint256",
                    "name": "",
                    "type": "uint256"
                }
            ],
            "stateMutability": "view",
            "type": "function"
        },
        {
            "inputs": [
                {
                    "internalType": "uint256",
                    "name": "tokenId",
                    "type": "uint256"
                }
            ],
            "name": "tokenURI",
            "outputs": [
                {
                    "internalType": "string",
                    "name": "",
                    "type": "string"
                }
            ],
            "stateMutability": "view",
            "type": "function"
        },
        {
            "inputs": [
                {
                    "internalType": "uint256",
                    "name": "",
                    "type": "uint256"
                }
            ],
            "name": "tokenURIMapping",
            "outputs": [
                {
                    "internalType": "string",
                    "name": "",
                    "type": "string"
                }
            ],
            "stateMutability": "view",
            "type": "function"
        },
        {
            "inputs": [],
            "name": "totalSupply",
            "outputs": [
                {
                    "internalType": "uint256",
                    "name": "",
                    "type": "uint256"
                }
            ],
            "stateMutability": "view",
            "type": "function"
        },
        {
            "inputs": [
                {
                    "internalType": "address",
                    "name": "from",
                    "type": "address"
                },
                {
                    "internalType": "address",
                    "name": "to",
                    "type": "address"
                },
                {
                    "internalType": "uint256",
                    "name": "tokenId",
                    "type": "uint256"
                }
            ],
            "name": "transferFrom",
            "outputs": [],
            "stateMutability": "nonpayable",
            "type": "function"
        },
        {
            "inputs": [
                {
                    "internalType": "address",
                    "name": "newOwner",
                    "type": "address"
                }
            ],
            "name": "transferOwnership",
            "outputs": [],
            "stateMutability": "nonpayable",
            "type": "function"
        },
        {
            "inputs": [
                {
                    "internalType": "address",
                    "name": "_owner",
                    "type": "address"
                }
            ],
            "name": "walletOfOwner",
            "outputs": [
                {
                    "internalType": "uint256[]",
                    "name": "",
                    "type": "uint256[]"
                }
            ],
            "stateMutability": "view",
            "type": "function"
        },
        {
            "inputs": [
                {
                    "internalType": "address",
                    "name": "_user",
                    "type": "address"
                }
            ],
            "name": "whitelistUser",
            "outputs": [],
            "stateMutability": "nonpayable",
            "type": "function"
        },
        {
            "inputs": [
                {
                    "internalType": "address",
                    "name": "",
                    "type": "address"
                }
            ],
            "name": "whitelisted",
            "outputs": [
                {
                    "internalType": "bool",
                    "name": "",
                    "type": "bool"
                }
            ],
            "stateMutability": "view",
            "type": "function"
        },
        {
            "inputs": [],
            "name": "withdraw",
            "outputs": [],
            "stateMutability": "nonpayable",
            "type": "function"
        }
    ],
    "bytecode": "608060405266b1a2bc2ec50000600b556001600c55600d805460ff191690553480156200002b57600080fd5b506040516200256c3803806200256c8339810160408190526200004e916200026b565b81518290829062000067906000906020850190620000f8565b5080516200007d906001906020840190620000f8565b5050506200009a62000094620000a260201b60201c565b620000a6565b505062000312565b3390565b600a80546001600160a01b038381166001600160a01b0319831681179093556040519116919082907f8be0079c531659141344cd1fd0a4f28419497f9722a3daafe3b4186f6b6457e090600090a35050565b8280546200010690620002d5565b90600052602060002090601f0160209004810192826200012a576000855562000175565b82601f106200014557805160ff191683800117855562000175565b8280016001018555821562000175579182015b828111156200017557825182559160200191906001019062000158565b506200018392915062000187565b5090565b5b8082111562000183576000815560010162000188565b634e487b7160e01b600052604160045260246000fd5b600082601f830112620001c657600080fd5b81516001600160401b0380821115620001e357620001e36200019e565b604051601f8301601f19908116603f011681019082821181831017156200020e576200020e6200019e565b816040528381526020925086838588010111156200022b57600080fd5b600091505b838210156200024f578582018301518183018401529082019062000230565b83821115620002615760008385830101525b9695505050505050565b600080604083850312156200027f57600080fd5b82516001600160401b03808211156200029757600080fd5b620002a586838701620001b4565b93506020850151915080821115620002bc57600080fd5b50620002cb85828601620001b4565b9150509250929050565b600181811c90821680620002ea57607f821691505b602082108114156200030c57634e487b7160e01b600052602260045260246000fd5b50919050565b61224a80620003226000396000f3fe6080604052600436106101f95760003560e01c80634f6ccce71161010d57806395d89b41116100a0578063d3fc98641161006f578063d3fc986414610595578063d936547e146105a8578063e985e9c5146105d8578063f2fde38b14610621578063fc3aeb221461064157600080fd5b806395d89b4114610520578063a22cb46514610535578063b88d4fde14610555578063c87b56dd1461057557600080fd5b8063715018a6116100dc578063715018a6146104ad5780637f00c7a6146104c25780637fb3a9a2146104e25780638da5cb5b1461050257600080fd5b80634f6ccce7146104335780635c975abb146104535780636352211e1461046d57806370a082311461048d57600080fd5b806323b872dd1161019057806342842e0e1161015f57806342842e0e14610393578063438b6300146103b357806344a0d68a146103e05780634a4c560d146104005780634de57d751461042057600080fd5b806323b872dd1461031e5780632f745c591461033e57806330cc7ae01461035e5780633ccfd60b1461037e57600080fd5b8063095ea7b3116101cc578063095ea7b3146102af57806313faede6146102cf57806318160ddd146102f3578063239c70ae1461030857600080fd5b806301ffc9a7146101fe57806302329a291461023357806306fdde0314610255578063081812fc14610277575b600080fd5b34801561020a57600080fd5b5061021e610219366004611c30565b610661565b60405190151581526020015b60405180910390f35b34801561023f57600080fd5b5061025361024e366004611c69565b61068c565b005b34801561026157600080fd5b5061026a6106d2565b60405161022a9190611cd1565b34801561028357600080fd5b50610297610292366004611ce4565b610764565b6040516001600160a01b03909116815260200161022a565b3480156102bb57600080fd5b506102536102ca366004611d14565b6107f9565b3480156102db57600080fd5b506102e5600b5481565b60405190815260200161022a565b3480156102ff57600080fd5b506008546102e5565b34801561031457600080fd5b506102e5600c5481565b34801561032a57600080fd5b50610253610339366004611d3e565b61090f565b34801561034a57600080fd5b506102e5610359366004611d14565b610940565b34801561036a57600080fd5b50610253610379366004611d7a565b6109d6565b34801561038a57600080fd5b50610253610a21565b34801561039f57600080fd5b506102536103ae366004611d3e565b610afb565b3480156103bf57600080fd5b506103d36103ce366004611d7a565b610b16565b60405161022a9190611d95565b3480156103ec57600080fd5b506102536103fb366004611ce4565b610bb8565b34801561040c57600080fd5b5061025361041b366004611d7a565b610be7565b34801561042c57600080fd5b50476102e5565b34801561043f57600080fd5b506102e561044e366004611ce4565b610c35565b34801561045f57600080fd5b50600d5461021e9060ff1681565b34801561047957600080fd5b50610297610488366004611ce4565b610cc8565b34801561049957600080fd5b506102e56104a8366004611d7a565b610d3f565b3480156104b957600080fd5b50610253610dc6565b3480156104ce57600080fd5b506102536104dd366004611ce4565b610dfc565b3480156104ee57600080fd5b506102536104fd366004611e85565b610e2b565b34801561050e57600080fd5b50600a546001600160a01b0316610297565b34801561052c57600080fd5b5061026a610e74565b34801561054157600080fd5b50610253610550366004611ecc565b610e83565b34801561056157600080fd5b50610253610570366004611eff565b610f48565b34801561058157600080fd5b5061026a610590366004611ce4565b610f80565b6102536105a3366004611f7b565b61109d565b3480156105b457600080fd5b5061021e6105c3366004611d7a565b600e6020526000908152604090205460ff1681565b3480156105e457600080fd5b5061021e6105f3366004611fd2565b6001600160a01b03918216600090815260056020908152604080832093909416825291909152205460ff1690565b34801561062d57600080fd5b5061025361063c366004611d7a565b611186565b34801561064d57600080fd5b5061026a61065c366004611ce4565b611221565b60006001600160e01b0319821663780e9d6360e01b14806106865750610686826112bb565b92915050565b600a546001600160a01b031633146106bf5760405162461bcd60e51b81526004016106b690611ffc565b60405180910390fd5b600d805460ff1916911515919091179055565b6060600080546106e190612031565b80601f016020809104026020016040519081016040528092919081815260200182805461070d90612031565b801561075a5780601f1061072f5761010080835404028352916020019161075a565b820191906000526020600020905b81548152906001019060200180831161073d57829003601f168201915b5050505050905090565b6000818152600260205260408120546001600160a01b03166107dd5760405162461bcd60e51b815260206004820152602c60248201527f4552433732313a20617070726f76656420717565727920666f72206e6f6e657860448201526b34b9ba32b73a103a37b5b2b760a11b60648201526084016106b6565b506000908152600460205260409020546001600160a01b031690565b600061080482610cc8565b9050806001600160a01b0316836001600160a01b031614156108725760405162461bcd60e51b815260206004820152602160248201527f4552433732313a20617070726f76616c20746f2063757272656e74206f776e656044820152603960f91b60648201526084016106b6565b336001600160a01b038216148061088e575061088e81336105f3565b6109005760405162461bcd60e51b815260206004820152603860248201527f4552433732313a20617070726f76652063616c6c6572206973206e6f74206f7760448201527f6e6572206e6f7220617070726f76656420666f7220616c6c000000000000000060648201526084016106b6565b61090a838361130b565b505050565b6109193382611379565b6109355760405162461bcd60e51b81526004016106b69061206c565b61090a838383611470565b600061094b83610d3f565b82106109ad5760405162461bcd60e51b815260206004820152602b60248201527f455243373231456e756d657261626c653a206f776e657220696e646578206f7560448201526a74206f6620626f756e647360a81b60648201526084016106b6565b506001600160a01b03919091166000908152600660209081526040808320938352929052205490565b600a546001600160a01b03163314610a005760405162461bcd60e51b81526004016106b690611ffc565b6001600160a01b03166000908152600e60205260409020805460ff19169055565b600a546001600160a01b03163314610a4b5760405162461bcd60e51b81526004016106b690611ffc565b476000610a60600a546001600160a01b031690565b6001600160a01b03168260405160006040518083038185875af1925050503d8060008114610aaa576040519150601f19603f3d011682016040523d82523d6000602084013e610aaf565b606091505b5050905080610af75760405162461bcd60e51b81526020600482015260146024820152732330b4b632b2103a379039b2b7321022ba3432b960611b60448201526064016106b6565b5050565b61090a83838360405180602001604052806000815250610f48565b60606000610b2383610d3f565b905060008167ffffffffffffffff811115610b4057610b40611dd9565b604051908082528060200260200182016040528015610b69578160200160208202803683370190505b50905060005b82811015610bb057610b818582610940565b828281518110610b9357610b936120bd565b602090810291909101015280610ba8816120e9565b915050610b6f565b509392505050565b600a546001600160a01b03163314610be25760405162461bcd60e51b81526004016106b690611ffc565b600b55565b600a546001600160a01b03163314610c115760405162461bcd60e51b81526004016106b690611ffc565b6001600160a01b03166000908152600e60205260409020805460ff19166001179055565b6000610c4060085490565b8210610ca35760405162461bcd60e51b815260206004820152602c60248201527f455243373231456e756d657261626c653a20676c6f62616c20696e646578206f60448201526b7574206f6620626f756e647360a01b60648201526084016106b6565b60088281548110610cb657610cb66120bd565b90600052602060002001549050919050565b6000818152600260205260408120546001600160a01b0316806106865760405162461bcd60e51b815260206004820152602960248201527f4552433732313a206f776e657220717565727920666f72206e6f6e657869737460448201526832b73a103a37b5b2b760b91b60648201526084016106b6565b60006001600160a01b038216610daa5760405162461bcd60e51b815260206004820152602a60248201527f4552433732313a2062616c616e636520717565727920666f7220746865207a65604482015269726f206164647265737360b01b60648201526084016106b6565b506001600160a01b031660009081526003602052604090205490565b600a546001600160a01b03163314610df05760405162461bcd60e51b81526004016106b690611ffc565b610dfa600061161b565b565b600a546001600160a01b03163314610e265760405162461bcd60e51b81526004016106b690611ffc565b600c55565b600a546001600160a01b03163314610e555760405162461bcd60e51b81526004016106b690611ffc565b6000828152600f60209081526040909120825161090a92840190611b81565b6060600180546106e190612031565b6001600160a01b038216331415610edc5760405162461bcd60e51b815260206004820152601960248201527f4552433732313a20617070726f766520746f2063616c6c65720000000000000060448201526064016106b6565b3360008181526005602090815260408083206001600160a01b03871680855290835292819020805460ff191686151590811790915590519081529192917f17307eab39ab6107e8899845ad3d59bd9653f200f220920489ca2b5937696c31910160405180910390a35050565b610f523383611379565b610f6e5760405162461bcd60e51b81526004016106b69061206c565b610f7a8484848461166d565b50505050565b6000818152600260205260409020546060906001600160a01b0316610fff5760405162461bcd60e51b815260206004820152602f60248201527f4552433732314d657461646174613a2055524920717565727920666f72206e6f60448201526e3732bc34b9ba32b73a103a37b5b2b760891b60648201526084016106b6565b6000828152600f60205260409020805461101890612031565b80601f016020809104026020016040519081016040528092919081815260200182805461104490612031565b80156110915780601f1061106657610100808354040283529160200191611091565b820191906000526020600020905b81548152906001019060200180831161107457829003601f168201915b50505050509050919050565b60006110a860085490565b600d5490915060ff16156110bb57600080fd5b600083116110c857600080fd5b600c548311156110d757600080fd5b600a546001600160a01b0316331461111f57336000908152600e602052604090205460ff16151560011461111f5782600b546111139190612104565b34101561111f57600080fd5b60015b83811161117f5782600f60006111388486612123565b81526020019081526020016000209080519060200190611159929190611b81565b5061116d856111688385612123565b6116a0565b80611177816120e9565b915050611122565b5050505050565b600a546001600160a01b031633146111b05760405162461bcd60e51b81526004016106b690611ffc565b6001600160a01b0381166112155760405162461bcd60e51b815260206004820152602660248201527f4f776e61626c653a206e6577206f776e657220697320746865207a65726f206160448201526564647265737360d01b60648201526084016106b6565b61121e8161161b565b50565b600f602052600090815260409020805461123a90612031565b80601f016020809104026020016040519081016040528092919081815260200182805461126690612031565b80156112b35780601f10611288576101008083540402835291602001916112b3565b820191906000526020600020905b81548152906001019060200180831161129657829003601f168201915b505050505081565b60006001600160e01b031982166380ac58cd60e01b14806112ec57506001600160e01b03198216635b5e139f60e01b145b8061068657506301ffc9a760e01b6001600160e01b0319831614610686565b600081815260046020526040902080546001600160a01b0319166001600160a01b038416908117909155819061134082610cc8565b6001600160a01b03167f8c5be1e5ebec7d5bd14f71427d1e84f3dd0314c0f7b2291e5b200ac8c7c3b92560405160405180910390a45050565b6000818152600260205260408120546001600160a01b03166113f25760405162461bcd60e51b815260206004820152602c60248201527f4552433732313a206f70657261746f7220717565727920666f72206e6f6e657860448201526b34b9ba32b73a103a37b5b2b760a11b60648201526084016106b6565b60006113fd83610cc8565b9050806001600160a01b0316846001600160a01b031614806114385750836001600160a01b031661142d84610764565b6001600160a01b0316145b8061146857506001600160a01b0380821660009081526005602090815260408083209388168352929052205460ff165b949350505050565b826001600160a01b031661148382610cc8565b6001600160a01b0316146114eb5760405162461bcd60e51b815260206004820152602960248201527f4552433732313a207472616e73666572206f6620746f6b656e2074686174206960448201526839903737ba1037bbb760b91b60648201526084016106b6565b6001600160a01b03821661154d5760405162461bcd60e51b8152602060048201526024808201527f4552433732313a207472616e7366657220746f20746865207a65726f206164646044820152637265737360e01b60648201526084016106b6565b6115588383836116ba565b61156360008261130b565b6001600160a01b038316600090815260036020526040812080546001929061158c90849061213b565b90915550506001600160a01b03821660009081526003602052604081208054600192906115ba908490612123565b909155505060008181526002602052604080822080546001600160a01b0319166001600160a01b0386811691821790925591518493918716917fddf252ad1be2c89b69c2b068fc378daa952ba7f163c4a11628f55a4df523b3ef91a4505050565b600a80546001600160a01b038381166001600160a01b0319831681179093556040519116919082907f8be0079c531659141344cd1fd0a4f28419497f9722a3daafe3b4186f6b6457e090600090a35050565b611678848484611470565b61168484848484611772565b610f7a5760405162461bcd60e51b81526004016106b690612152565b610af7828260405180602001604052806000815250611870565b6001600160a01b0383166117155761171081600880546000838152600960205260408120829055600182018355919091527ff3f7a9fe364faab93b216da50a3214154f22a0a2b415b23a84c8169e8b636ee30155565b611738565b816001600160a01b0316836001600160a01b0316146117385761173883826118a3565b6001600160a01b03821661174f5761090a81611940565b826001600160a01b0316826001600160a01b03161461090a5761090a82826119ef565b60006001600160a01b0384163b1561186557604051630a85bd0160e11b81526001600160a01b0385169063150b7a02906117b69033908990889088906004016121a4565b6020604051808303816000875af19250505080156117f1575060408051601f3d908101601f191682019092526117ee918101906121e1565b60015b61184b573d80801561181f576040519150601f19603f3d011682016040523d82523d6000602084013e611824565b606091505b5080516118435760405162461bcd60e51b81526004016106b690612152565b805181602001fd5b6001600160e01b031916630a85bd0160e11b149050611468565b506001949350505050565b61187a8383611a33565b6118876000848484611772565b61090a5760405162461bcd60e51b81526004016106b690612152565b600060016118b084610d3f565b6118ba919061213b565b60008381526007602052604090205490915080821461190d576001600160a01b03841660009081526006602090815260408083208584528252808320548484528184208190558352600790915290208190555b5060009182526007602090815260408084208490556001600160a01b039094168352600681528383209183525290812055565b6008546000906119529060019061213b565b6000838152600960205260408120546008805493945090928490811061197a5761197a6120bd565b90600052602060002001549050806008838154811061199b5761199b6120bd565b60009182526020808320909101929092558281526009909152604080822084905585825281205560088054806119d3576119d36121fe565b6001900381819060005260206000200160009055905550505050565b60006119fa83610d3f565b6001600160a01b039093166000908152600660209081526040808320868452825280832085905593825260079052919091209190915550565b6001600160a01b038216611a895760405162461bcd60e51b815260206004820181905260248201527f4552433732313a206d696e7420746f20746865207a65726f206164647265737360448201526064016106b6565b6000818152600260205260409020546001600160a01b031615611aee5760405162461bcd60e51b815260206004820152601c60248201527f4552433732313a20746f6b656e20616c7265616479206d696e7465640000000060448201526064016106b6565b611afa600083836116ba565b6001600160a01b0382166000908152600360205260408120805460019290611b23908490612123565b909155505060008181526002602052604080822080546001600160a01b0319166001600160a01b03861690811790915590518392907fddf252ad1be2c89b69c2b068fc378daa952ba7f163c4a11628f55a4df523b3ef908290a45050565b828054611b8d90612031565b90600052602060002090601f016020900481019282611baf5760008555611bf5565b82601f10611bc857805160ff1916838001178555611bf5565b82800160010185558215611bf5579182015b82811115611bf5578251825591602001919060010190611bda565b50611c01929150611c05565b5090565b5b80821115611c015760008155600101611c06565b6001600160e01b03198116811461121e57600080fd5b600060208284031215611c4257600080fd5b8135611c4d81611c1a565b9392505050565b80358015158114611c6457600080fd5b919050565b600060208284031215611c7b57600080fd5b611c4d82611c54565b6000815180845260005b81811015611caa57602081850181015186830182015201611c8e565b81811115611cbc576000602083870101525b50601f01601f19169290920160200192915050565b602081526000611c4d6020830184611c84565b600060208284031215611cf657600080fd5b5035919050565b80356001600160a01b0381168114611c6457600080fd5b60008060408385031215611d2757600080fd5b611d3083611cfd565b946020939093013593505050565b600080600060608486031215611d5357600080fd5b611d5c84611cfd565b9250611d6a60208501611cfd565b9150604084013590509250925092565b600060208284031215611d8c57600080fd5b611c4d82611cfd565b6020808252825182820181905260009190848201906040850190845b81811015611dcd57835183529284019291840191600101611db1565b50909695505050505050565b634e487b7160e01b600052604160045260246000fd5b600067ffffffffffffffff80841115611e0a57611e0a611dd9565b604051601f8501601f19908116603f01168101908282118183101715611e3257611e32611dd9565b81604052809350858152868686011115611e4b57600080fd5b858560208301376000602087830101525050509392505050565b600082601f830112611e7657600080fd5b611c4d83833560208501611def565b60008060408385031215611e9857600080fd5b82359150602083013567ffffffffffffffff811115611eb657600080fd5b611ec285828601611e65565b9150509250929050565b60008060408385031215611edf57600080fd5b611ee883611cfd565b9150611ef660208401611c54565b90509250929050565b60008060008060808587031215611f1557600080fd5b611f1e85611cfd565b9350611f2c60208601611cfd565b925060408501359150606085013567ffffffffffffffff811115611f4f57600080fd5b8501601f81018713611f6057600080fd5b611f6f87823560208401611def565b91505092959194509250565b600080600060608486031215611f9057600080fd5b611f9984611cfd565b925060208401359150604084013567ffffffffffffffff811115611fbc57600080fd5b611fc886828701611e65565b9150509250925092565b60008060408385031215611fe557600080fd5b611fee83611cfd565b9150611ef660208401611cfd565b6020808252818101527f4f776e61626c653a2063616c6c6572206973206e6f7420746865206f776e6572604082015260600190565b600181811c9082168061204557607f821691505b6020821081141561206657634e487b7160e01b600052602260045260246000fd5b50919050565b60208082526031908201527f4552433732313a207472616e736665722063616c6c6572206973206e6f74206f6040820152701ddb995c881b9bdc88185c1c1c9bdd9959607a1b606082015260800190565b634e487b7160e01b600052603260045260246000fd5b634e487b7160e01b600052601160045260246000fd5b60006000198214156120fd576120fd6120d3565b5060010190565b600081600019048311821515161561211e5761211e6120d3565b500290565b60008219821115612136576121366120d3565b500190565b60008282101561214d5761214d6120d3565b500390565b60208082526032908201527f4552433732313a207472616e7366657220746f206e6f6e20455243373231526560408201527131b2b4bb32b91034b6b83632b6b2b73a32b960711b606082015260800190565b6001600160a01b03858116825284166020820152604081018390526080606082018190526000906121d790830184611c84565b9695505050505050565b6000602082840312156121f357600080fd5b8151611c4d81611c1a565b634e487b7160e01b600052603160045260246000fdfea2646970667358221220d093dbd7c198d93a43aa68378404b842df21cc7aecd8aadda2ba20c74472ea1664736f6c634300080a0033",
    "sourcePath": "/home/ben/consensys/eth-og/contracts/NFT.sol",
    "compiler": {
        "name": "solc",
        "version": "0.8.10+commit.fc410830"
    },
    "functionHashes": {
        "approve(address,uint256)": "095ea7b3",
        "balanceOf(address)": "70a08231",
        "changeTokenURI(uint256,string)": "7fb3a9a2",
        "cost()": "13faede6",
        "getApproved(uint256)": "081812fc",
        "getContractEthBalance()": "4de57d75",
        "isApprovedForAll(address,address)": "e985e9c5",
        "maxMintAmount()": "239c70ae",
        "mint(address,uint256,string)": "d3fc9864",
        "name()": "06fdde03",
        "owner()": "8da5cb5b",
        "ownerOf(uint256)": "6352211e",
        "pause(bool)": "02329a29",
        "paused()": "5c975abb",
        "removeWhitelistUser(address)": "30cc7ae0",
        "renounceOwnership()": "715018a6",
        "safeTransferFrom(address,address,uint256)": "42842e0e",
        "safeTransferFrom(address,address,uint256,bytes)": "b88d4fde",
        "setApprovalForAll(address,bool)": "a22cb465",
        "setCost(uint256)": "44a0d68a",
        "setmaxMintAmount(uint256)": "7f00c7a6",
        "supportsInterface(bytes4)": "01ffc9a7",
        "symbol()": "95d89b41",
        "tokenByIndex(uint256)": "4f6ccce7",
        "tokenOfOwnerByIndex(address,uint256)": "2f745c59",
        "tokenURI(uint256)": "c87b56dd",
        "tokenURIMapping(uint256)": "fc3aeb22",
        "totalSupply()": "18160ddd",
        "transferFrom(address,address,uint256)": "23b872dd",
        "transferOwnership(address)": "f2fde38b",
        "walletOfOwner(address)": "438b6300",
        "whitelistUser(address)": "4a4c560d",
        "whitelisted(address)": "d936547e",
        "withdraw()": "3ccfd60b"
    },
    "gasEstimates": {
        "creation": {
            "codeDepositCost": "1755600",
            "executionCost": "infinite",
            "totalCost": "infinite"
        },
        "external": {
            "approve(address,uint256)": "infinite",
            "balanceOf(address)": "2701",
            "changeTokenURI(uint256,string)": "infinite",
            "cost()": "2363",
            "getApproved(uint256)": "4805",
            "getContractEthBalance()": "327",
            "isApprovedForAll(address,address)": "infinite",
            "maxMintAmount()": "2407",
            "mint(address,uint256,string)": "infinite",
            "name()": "infinite",
            "owner()": "2442",
            "ownerOf(uint256)": "2646",
            "pause(bool)": "26738",
            "paused()": "2367",
            "removeWhitelistUser(address)": "26834",
            "renounceOwnership()": "28162",
            "safeTransferFrom(address,address,uint256)": "infinite",
            "safeTransferFrom(address,address,uint256,bytes)": "infinite",
            "setApprovalForAll(address,bool)": "infinite",
            "setCost(uint256)": "24553",
            "setmaxMintAmount(uint256)": "24531",
            "supportsInterface(bytes4)": "infinite",
            "symbol()": "infinite",
            "tokenByIndex(uint256)": "6761",
            "tokenOfOwnerByIndex(address,uint256)": "4998",
            "tokenURI(uint256)": "infinite",
            "tokenURIMapping(uint256)": "infinite",
            "totalSupply()": "2382",
            "transferFrom(address,address,uint256)": "infinite",
            "transferOwnership(address)": "28422",
            "walletOfOwner(address)": "infinite",
            "whitelistUser(address)": "26861",
            "whitelisted(address)": "2586",
            "withdraw()": "infinite"
        }
    }
}